:100000000C9463000C948B000C948B000C948B006C
:100010000C948B000C948B000C948B000C946C064D
:100020000C948B000C948B000C948B000C948B0024
:100030000C948B000C948B000C948B000C948B0014
:100040000C9422060C948B000C948B000C948B0067
:100050000C948B000C948B000C948B000C948B00F4
:100060000C948B000C948B000200000000230026EF
:1000700000290000000000240027002A00000000E2
:1000800000250028002B00040404040404040402D6
:100090000202020202030303030303010204081025
:1000A00020408001020408102001020408102000F2
:1000B0000000080002010000030407000000000027
:1000C000000000003C0911241FBECFEFD8E0DEBFC6
:1000D000CDBF11E0A0E0B1E0E4EDF3E102C0059096
:1000E0000D92AE35B107D9F721E0AEE5B1E001C020
:1000F0001D92A03AB207E1F710E0C3E6D0E004C0D9
:100100002197FE010E94CE09C236D107C9F70E948D
:10011000EE060C94E8090C940000833081F028F47A
:10012000813099F08230A1F008958730A9F08830AD
:10013000B9F08430D1F4809180008F7D03C080912C
:1001400080008F7780938000089584B58F7702C0F8
:1001500084B58F7D84BD08958091B0008F7703C0F2
:100160008091B0008F7D8093B00008951F93CF934E
:10017000DF93282F30E0F901E155FF4F8491F90119
:10018000E556FF4FD491F901E957FF4FC491CC23B5
:10019000C1F0162F81110E948D00EC2FF0E0EE0FC0
:1001A000FF1FE358FF4FA591B4919FB7F894111129
:1001B00004C08C91D095D82302C0EC91DE2BDC9347
:1001C0009FBFDF91CF911F910895CF93DF9390E070
:1001D000FC01E556FF4F2491FC01E957FF4F849144
:1001E000882361F190E0880F991FFC01ED58FF4FC3
:1001F000C591D491FC01E358FF4FA591B4916111D1
:1002000009C09FB7F8948881209582238883EC9158
:100210002E230BC0623061F49FB7F8948881322F8F
:10022000309583238883EC912E2B2C939FBF06C09F
:100230008FB7F894E8812E2B28838FBFDF91CF9161
:1002400008958E3008F08E508770806480937C0013
:1002500080917A00806480937A0080917A0086FD94
:10026000FCCF809178002091790090E0922B089546
:100270003FB7F8948091840190918501A091860107
:10028000B091870126B5A89B05C02F3F19F00196B4
:10029000A11DB11D3FBFBA2FA92F982F8827820F0C
:1002A000911DA11DB11DBC01CD0142E0660F771F5C
:1002B000881F991F4A95D1F708958F929F92AF9208
:1002C000BF92CF92DF92EF92FF926B017C010E946E
:1002D00038014B015C01C114D104E104F104F1F0D7
:1002E0000E943801DC01CB0188199909AA09BB09D0
:1002F000883E9340A105B10570F321E0C21AD108F0
:10030000E108F10888EE880E83E0981EA11CB11C5C
:10031000C114D104E104F10419F7DDCFFF90EF908F
:10032000DF90CF90BF90AF909F908F9008954F92A5
:100330005F926F927F928F929F92AF92BF92CF9275
:10034000DF92EF92FF920F931F93CF93DF9300D032
:1003500000D01F92CDB7DEB78B0129013A019091F1
:100360000001891721F09F3F09F045C205C0E8E66A
:10037000F0E024912D837CC080930001E8E6F0E05A
:1003800094919D839F3F09F436C2913009F449C08E
:1003900058F1923009F06CC01092B0001092B10088
:1003A0009091B00092609093B0009091B1009160F4
:1003B0009093B100282F30E0F901E957FF4FE49105
:1003C000F0E0EE0FFF1FE358FF4F4591549150931B
:1003D000690140936801F901E556FF4FE491E0930C
:1003E0006A0192E09D8303C214BC15BC94B592606F
:1003F00094BD95B5916095BD282F30E0F901E9577E
:10040000FF4FE491F0E0EE0FFF1FE358FF4F4591DF
:100410005491F901E556FF4FE491E0935F011D828D
:10042000E6C1109280001092810090918100986046
:100430009093810090918100916090938100282F8A
:1004400030E0F901E957FF4FE491F0E0EE0FFF1FB4
:10045000E358FF4F45915491F901E556FF4FE49160
:10046000E0935E0161E00E94E50021E02D8389C0F8
:100470002D8127FDC0C161E00E94E5008D818D7F47
:1004800009F07FC04801A12CB12C60E072E18AE73D
:1004900090E0A50194010E94900929833A834B833F
:1004A0005C8369017A0181E0C81AD108E108F1088A
:1004B0009FEFC916D104E104F10409F008F44EC01D
:1004C00060E472E48FE090E0A50194010E9490093D
:1004D00069017A0181E0C81AD108E108F1089D811B
:1004E000923009F52FEFC216D104E104F10409F0AE
:1004F00008F444C160E970ED83E090E0A501940147
:100500000E94900969017A0181E0C81AD108E108C6
:10051000F1089FEFC916D104E104F10411F008F0CD
:10052000BAC083E027C02FEFC216D104E104F10462
:10053000B9F0B0F068E478EE81E090E0A5019401B4
:100540000E94900969017A0181E0C81AD108E10886
:10055000F1089D81992309F413C1DCC081E001C039
:1005600082E09D81911106C095B5987F892B85BD4C
:1005700044C085E09091B100987F892B8093B100B1
:100580003CC04801A12CB12C60E072E18AE790E008
:10059000A50194010E94900969017A0181E0C81ABD
:1005A000D108E108F108C114D10491E0E906F10491
:1005B00088F068E478EE81E090E0A50194010E9463
:1005C000900969017A0181E0C81AD108E108F108AF
:1005D00083E001C081E09D81913079F490918100A8
:1005E000987F892B80938100411451046104710428
:1005F00049F42FEF3FEFA9012CC0411451046104CD
:10060000710471F0D801AA0FBB1FA30192010E94CF
:10061000AF0928EE33E040E050E00E946E0903C0CD
:100620002FEF3FEFA9018D81813099F0823019F1D0
:100630008111E1C0C7BC20936401309365014093F0
:1006400066015093670180916E00826080936E0016
:10065000D2C0D0928900C09288002093600130936C
:100660006101409362015093630180916F00826049
:1006700080936F00C0C0C092B30020936B01309391
:100680006C0140936D0150936E0180917000826007
:1006900080937000B0C068E478EE81E090E0A5013E
:1006A00094010E94900969017A0191E0C91AD10868
:1006B000E108F1082FEFC216D104E104F10441F181
:1006C00038F164E274EF80E090E0A50194010E94AB
:1006D000900969017A0181E0C81AD108E108F1089E
:1006E0009FEFC916D104E104F10409F008F441CFE9
:1006F00062E17AE780E090E0A50194010E94900910
:1007000069017A0181E0C81AD108E108F10819C02D
:1007100084E030CF2FEFC216D104E104F10409F0D8
:1007200008F463C062E17AE780E090E0A5019401FB
:100730000E94900969017A0191E0C91AD108E10883
:10074000F1088FEFC816D104E104F104A9F0A0F07C
:1007500089819A81AB81BC812AE0B595A79597954F
:1007600087952A95D1F76C017D0121E0C21AD10845
:10077000E108F10887E0FECE86E0FCCE82E0FACE0A
:100780008FEFC816D104E104F10469F160F162E170
:100790007AE780E090E0A50194010E949009690148
:1007A0007A0191E0C91AD108E108F1082FEFC216C9
:1007B000D104E104F104A9F0A0F089819A81AB8110
:1007C000BC813AE0B595A795979587953A95D1F76D
:1007D0006C017D0121E0C21AD108E108F10885E031
:1007E000C3CE84E0C1CE83E0BFCE84E0BACE61E068
:1007F0000E94E50047CE0F900F900F900F900F9042
:10080000DF91CF911F910F91FF90EF90DF90CF90EC
:10081000BF90AF909F908F907F906F905F904F9020
:100820000895CF92DF92EF92FF920F931F93CF9391
:10083000DF936C017A018B01C0E0D0E0CE15DF05BB
:1008400081F0D8016D918D01D601ED91FC9101905F
:10085000F081E02DC6010995892B11F02196EECF8C
:100860007E01C701DF91CF911F910F91FF90EF9013
:10087000DF90CF900895CF93DF93EC0160E08E81FD
:100880000E94B60061E08E810E94B60060E08E8119
:100890000E94B6008BE891E00197F1F7DF91CF91CC
:1008A0000895CF92DF92EF92FF920F931F93CF9311
:1008B000DF936C017C0187E0E80EF11CC0E0D0E022
:1008C000062F10E0B8010C2E02C0759567950A94AA
:1008D000E2F76170F70181917F010E94B6002196D5
:1008E000C430D10579F7C601DF91CF911F910F91E7
:1008F000FF90EF90DF90CF900C943B04CF92DF926B
:10090000EF92FF920F931F93CF93DF93EC01F62E9C
:10091000642F8C810E94B6008D818F3F19F060E0BA
:100920000E94B6008F850F2D10E084FF25C06E0158
:1009300087E0C80ED11CE12CF12CB8010E2C02C0AE
:10094000759567950A94E2F76170F60181916F01E0
:100950000E94B600FFEFEF1AFF0A88E0E816F104E4
:1009600061F7CE01DF91CF911F910F91FF90EF9032
:10097000DF90CF900C943B04B80184E075956795A7
:100980008A95E1F7CE010E9451046F2DCE01DF91CF
:10099000CF911F910F91FF90EF90DF90CF900C942B
:1009A000510440E0682F88E891E00C947E0481E0D7
:1009B0000E94D1048BE39FE10197F1F70895CF9353
:1009C000DF93823028F0909197019860909397017F
:1009D00080939B0110929C0180E480939D0180E1B3
:1009E00080939E0180E580939F0161E080918C015E
:1009F0000E94E50080918D018F3F19F061E00E9417
:100A0000E50061E080918E010E94E500C8E8D1E038
:100A10009E01285831408091970184FD03C084E0F5
:100A200090E002C088E090E02196281739072CF466
:100A300061E08E810E94E500EBCF8BE39DE00197A2
:100A4000F1F760E080918C010E94B60060E0809137
:100A50008E010E94B60080918D018F3F19F060E0F9
:100A60000E94B6008091970184FD20C063E088E871
:100A700091E00E945104CBE4D6E4CE010197F1F756
:100A800063E088E891E00E9451042197F1F763E068
:100A900088E891E00E94510483E592E00197F1F724
:100AA00062E088E891E00E94510415C080620E94D3
:100AB000D1048BE496E40197F1F78091970180626D
:100AC0000E94D10483E592E00197F1F780919701AC
:100AD00080620E94D1048091970180620E94D104BB
:100AE00084E0809398018CE00E94D1040E94D70496
:100AF00082E08093990186E0DF91CF910C94D1043C
:100B0000643008F063E090919B01691710F06FEF7B
:100B1000690FE62FF0E0E857FE4F9489890F80684F
:100B20000C94D10441E00E947E0481E090E008959D
:100B3000089580E090E00895009769F0FC0101902D
:100B40000020E9F73197AF01481B590BBC0188E839
:100B500091E00C94110480E090E008950C949C05C1
:100B60008F929F92AF92BF92CF92DF92EF92FF92BD
:100B7000CF93DF93CDB7DEB7A1970FB6F894DEBF62
:100B80000FBECDBF6C01990FEE08FF08F7FE2AC01B
:100B900041E06DE288E891E00E947E04222733273D
:100BA000A9012C193D094E095F0919A2CE018196B0
:100BB0007C019AE0892E912CA12CB12CCA01B9019B
:100BC000A50194010E946E09605DF70162937F01A7
:100BD000211531054105510589F7CF010E949C057A
:100BE00001961DC0A701960119A2CE0181967C0134
:100BF0008AE0882E912CA12CB12CCA01B901A50143
:100C000094010E946E09605DF70162937F012115D6
:100C100031054105510589F7CF010E949C05A19638
:100C20000FB6F894DEBF0FBECDBFDF91CF91FF901E
:100C3000EF90DF90CF90BF90AF909F908F900895EE
:100C40000E94E3091F920F920FB60F9211242F9367
:100C50003F938F939F93AF93BF9380918001909127
:100C60008101A0918201B091830130917F0123E045
:100C7000230F2D3720F40196A11DB11D05C026E8D4
:100C8000230F0296A11DB11D20937F018093800147
:100C900090938101A0938201B0938301809184019C
:100CA00090918501A0918601B09187010196A11DC7
:100CB000B11D8093840190938501A0938601B09328
:100CC0008701BF91AF919F918F913F912F910F908D
:100CD0000FBE0F901F9018951F920F920FB60F9294
:100CE00011242F933F934F935F936F937F938F9331
:100CF0009F93AF93BF93EF93FF9380916B0190917C
:100D00006C01A0916D01B0916E01892B8A2B8B2B08
:100D100059F190916A01E0916801F0916901808137
:100D20008927808380916B0190916C01A0916D0166
:100D3000B0916E01181619061A061B060CF03DC07C
:100D400080916B0190916C01A0916D01B0916E0149
:100D50000197A109B10980936B0190936C01A09355
:100D60006D01B0936E0129C080910001E8E6F0E0CA
:100D7000E4919FEF90930001E130B9F098F0E230F8
:100D8000C9F4909170009D7F9093700091E09093D2
:100D9000B0009091B100987F94609093B100109250
:100DA000B30008C010926E0005C090916F009D7F47
:100DB00090936F0060E00E94B600FF91EF91BF91A9
:100DC000AF919F918F917F916F915F914F913F91E3
:100DD0002F910F900FBE0F901F901895789484B5A7
:100DE000826084BD84B5816084BD85B5826085BD27
:100DF00085B5816085BD80916E00816080936E00B5
:100E000010928100809181008260809381008091A6
:100E10008100816080938100809180008160809357
:100E200080008091B10084608093B1008091B00017
:100E300081608093B00080917A00846080937A0012
:100E400080917A00826080937A0080917A0081603C
:100E500080937A0080917A00806880937A00109263
:100E6000C10082E00E94DF0461E085E00E94E500AD
:100E700061E086E00E94E50060E083E10E94E50019
:100E800060E082E10E94E50060E081E10E94E5000F
:100E900062E084E00E94E50010927E0110927D01E4
:100EA00081E090E090937C0180937B0190937A01A4
:100EB00080937901909378018093770188248394BB
:100EC000912C43EB442E40E0542E5FE9652E50E018
:100ED000752EC0E1DEE00CE310E02BE8222E20E0CE
:100EE000322E80917D0190917E01892BE1F460E0AA
:100EF00080E00E9480058DE091E00E94AE0561E0F7
:100F000081E00E9480058AE191E00E94AE0564ECD8
:100F100079E080E090E00E945D0190927E018092F5
:100F20007D010E94D70483E10E9421015C0190931E
:100F30007C0180937B0182E10E9421016C019093EE
:100F40007A018093790181E10E9421017C019093D3
:100F50007801809377011A141B047CF48091750149
:100F600090917601019690937601809375016AEFD6
:100F700070E080E090E00E945D011C141D04BCF450
:100F8000809173019091740101968C33910529F041
:100F9000909374018093730104C0109274011092B5
:100FA00073016AEF70E080E090E00E945D011E1422
:100FB0001F04BCF4809171019091720101968C33F1
:100FC000910529F0909372018093710104C01092F1
:100FD0007201109271016AEF70E080E090E00E946F
:100FE0005D0160E080E00E94800584E291E00E9463
:100FF000AE0561E084E00E948005809175019091CA
:1010000076010A9724F488E391E00E94AE0580916E
:101010007501909176010E94B0058AE391E00E94EB
:10102000AE0580917301909174010A9724F488E3CE
:1010300091E00E94AE0580917301909174010E942D
:10104000B0058AE391E00E94AE0580917101909114
:1010500072010A9724F488E391E00E94AE05809122
:101060007101909172010E94B005F2018491F30127
:10107000F490F101E490EE2079F081110E948D004E
:10108000EE2DF0E0EE0FFF1FE759FF4FA591B49151
:101090008C91F82209F047CF8091730190917401EF
:1010A0004CE3489F9001499F300D112480917101BC
:1010B00090917201820F931F4091750150917601BA
:1010C0004C9F90014D9F300D5C9F300D1124820F7D
:1010D000931F9093700180936F0161E085E00E94FF
:1010E000B600E0906F01F09070011E141F040CF028
:1010F000BBC068EE73E080E090E00E945D01F1E02B
:10110000EF1AF108F0927001E0926F01C701BE0181
:101110000E945A097093760160937501C701B80166
:101120000E945A099C01CB01B8010E945A09909370
:10113000740180937301309372012093710160E018
:1011400080E00E9480058CE391E00E94AE0561E0A2
:1011500084E00E94800580917501909176010A9744
:1011600024F488E391E00E94AE058091750190918E
:1011700076010E94B0058AE391E00E94AE0580915D
:101180007301909174010A9724F488E391E00E941E
:10119000AE0580917301909174010E94B0058AE3BD
:1011A00091E00E94AE0580917101909172010A97C1
:1011B00024F488E391E00E94AE0580917101909142
:1011C00072010E94B005E0906F01F09070018FE114
:1011D000E816F1040CF085CF2AEF30E040E050E053
:1011E00062E370E086E00E9497016AEF70E080E0C1
:1011F00090E00E945D01EF2809F073CF0E94D704B0
:1012000060E085E00E9480058CE491E00E94AE05DC
:1012100061E083E00E94800583E591E00E94AE05D5
:1012200060E085E00E94B60028EE33E040E050E048
:1012300064E670E086E00E94970168EE73E080E06B
:1012400090E00E945D0161E080E00E94800580E105
:10125000E82EF12C60E288E891E00E949205E1E03E
:10126000EE1AF108B9F73DCF80E090E0892B09F440
:1012700038CE0E94000031CEE8E8F1E013821282FD
:1012800085E091E09183808387E084838FEF85837D
:1012900088E0868389E087838AE080878BE0818786
:1012A0008CE082871386148615861686178681E061
:1012B0000C94DF0497FB072E16F4009407D077FDFB
:1012C00009D00E94BA0907FC05D03EF4909581959B
:1012D0009F4F0895709561957F4F0895A1E21A2E52
:1012E000AA1BBB1BFD010DC0AA1FBB1FEE1FFF1FCA
:1012F000A217B307E407F50720F0A21BB30BE40B1A
:10130000F50B661F771F881F991F1A9469F7609560
:101310007095809590959B01AC01BD01CF0108951A
:10132000052E97FB1EF400940E94A70957FD07D0D5
:101330000E946E0907FC03D04EF40C94A709509547
:101340004095309521953F4F4F4F5F4F08959095B1
:101350008095709561957F4F8F4F9F4F08950E94A4
:10136000D409A59F900DB49F900DA49F800D911D51
:1013700011240895AA1BBB1B51E107C0AA1FBB1F64
:10138000A617B70710F0A61BB70B881F991F5A9511
:10139000A9F780959095BC01CD010895EE0FFF1F30
:1013A0000590F491E02D0994A29FB001B39FC00174
:1013B000A39F700D811D1124911DB29F700D811D81
:1013C0001124911D089581E090E0F8940C94E809AF
:0413D000F894FFCFBF
:1013D400FF00000000920511049905980554454D3D
:1013E400504F52495A41444F52004553504552457B
:1013F4002E2E2E00436F6E66696775726520656CCC
:10140400207469656D706F0030003A005469656D31
:10141400706F2072657374616E7465005469656DD4
:0E142400706F0046696E616C697A61646F00DA
:00000001FF
